{"abi":[{"type":"function","name":"agents","inputs":[{"name":"","type":"uint256","internalType":"uint256"}],"outputs":[{"name":"","type":"address","internalType":"contract Agent"}],"stateMutability":"view"},{"type":"function","name":"createAgent","inputs":[{"name":"_promptIPFSHash","type":"string","internalType":"string"},{"name":"_functionality","type":"string","internalType":"string"}],"outputs":[],"stateMutability":"nonpayable"},{"type":"function","name":"getAgents","inputs":[],"outputs":[{"name":"","type":"address[]","internalType":"contract Agent[]"}],"stateMutability":"view"},{"type":"event","name":"AgentCreated","inputs":[{"name":"agentAddress","type":"address","indexed":true,"internalType":"address"},{"name":"owner","type":"address","indexed":false,"internalType":"address"},{"name":"promptIPFSHash","type":"string","indexed":false,"internalType":"string"},{"name":"functionality","type":"string","indexed":false,"internalType":"string"}],"anonymous":false}],"bytecode":{"object":"0x608060405234801561001057600080fd5b50610afd806100206000396000f3fe608060405234801561001057600080fd5b50600436106100415760003560e01c80633a97e40f14610046578063513856c81461005b578063eac3fda41461008b575b600080fd5b6100596100543660046102a6565b6100a0565b005b61006e61006936600461030a565b61016a565b6040516001600160a01b0390911681526020015b60405180910390f35b610093610194565b6040516100829190610323565b60003383836040516100b1906101f6565b6100bd939291906103b6565b604051809103906000f0801580156100d9573d6000803e3d6000fd5b50600080546001810182559080527f290decd9548b62a8d60345a988386fc84ba6bc95484008f6362f93160ef3e5630180546001600160a01b0319166001600160a01b038316908117909155604051919250907feb54d2eebc83746e020b3b75af0824bc829571a76c1797bc1beaa935ce7044389061015d903390879087906103b6565b60405180910390a2505050565b6000818154811061017a57600080fd5b6000918252602090912001546001600160a01b0316905081565b606060008054806020026020016040519081016040528092919081815260200182805480156101ec57602002820191906000526020600020905b81546001600160a01b031681526001909101906020018083116101ce575b5050505050905090565b6106d1806103f783390190565b634e487b7160e01b600052604160045260246000fd5b600082601f83011261022a57600080fd5b813567ffffffffffffffff8082111561024557610245610203565b604051601f8301601f19908116603f0116810190828211818310171561026d5761026d610203565b8160405283815286602085880101111561028657600080fd5b836020870160208301376000602085830101528094505050505092915050565b600080604083850312156102b957600080fd5b823567ffffffffffffffff808211156102d157600080fd5b6102dd86838701610219565b935060208501359150808211156102f357600080fd5b5061030085828601610219565b9150509250929050565b60006020828403121561031c57600080fd5b5035919050565b6020808252825182820181905260009190848201906040850190845b818110156103645783516001600160a01b03168352928401929184019160010161033f565b50909695505050505050565b6000815180845260005b818110156103965760208185018101518683018201520161037a565b506000602082860101526020601f19601f83011685010191505092915050565b6001600160a01b03841681526060602082018190526000906103da90830185610370565b82810360408401526103ec8185610370565b969550505050505056fe608060405234801561001057600080fd5b506040516106d13803806106d183398101604081905261002f91610127565b600080546001600160a01b0319166001600160a01b03851617905560016100568382610232565b5060026100638282610232565b505050506102f1565b634e487b7160e01b600052604160045260246000fd5b600082601f83011261009357600080fd5b81516001600160401b03808211156100ad576100ad61006c565b604051601f8301601f19908116603f011681019082821181831017156100d5576100d561006c565b816040528381526020925086838588010111156100f157600080fd5b600091505b8382101561011357858201830151818301840152908201906100f6565b600093810190920192909252949350505050565b60008060006060848603121561013c57600080fd5b83516001600160a01b038116811461015357600080fd5b60208501519093506001600160401b038082111561017057600080fd5b61017c87838801610082565b9350604086015191508082111561019257600080fd5b5061019f86828701610082565b9150509250925092565b600181811c908216806101bd57607f821691505b6020821081036101dd57634e487b7160e01b600052602260045260246000fd5b50919050565b601f82111561022d57600081815260208120601f850160051c8101602086101561020a5750805b601f850160051c820191505b8181101561022957828155600101610216565b5050505b505050565b81516001600160401b0381111561024b5761024b61006c565b61025f8161025984546101a9565b846101e3565b602080601f831160018114610294576000841561027c5750858301515b600019600386901b1c1916600185901b178555610229565b600085815260208120601f198616915b828110156102c3578886015182559484019460019091019084016102a4565b50858210156102e15787850151600019600388901b60f8161c191681555b5050505050600190811b01905550565b6103d1806103006000396000f3fe608060405234801561001057600080fd5b50600436106100575760003560e01c80631cd13dcd1461005c5780633d7f3be81461007a5780638da5cb5b1461008f578063e5acbf7b146100ba578063ec184245146100c2575b600080fd5b6100646100d5565b604051610071919061024c565b60405180910390f35b61008d6100883660046102b0565b610163565b005b6000546100a2906001600160a01b031681565b6040516001600160a01b039091168152602001610071565b6100646101a7565b61008d6100d03660046102b0565b6101b4565b600180546100e290610361565b80601f016020809104026020016040519081016040528092919081815260200182805461010e90610361565b801561015b5780601f106101305761010080835404028352916020019161015b565b820191906000526020600020905b81548152906001019060200180831161013e57829003601f168201915b505050505081565b336001600160a01b03167f4146ab5d79ba296d95052c3a85eadfd118559b80e620bb5d8a9e47ef4c2b7f958260405161019c919061024c565b60405180910390a250565b600280546100e290610361565b6000546001600160a01b031633146102125760405162461bcd60e51b815260206004820152601d60248201527f4f6e6c79206f776e65722063616e207375626d697420726573756c7473000000604482015260640160405180910390fd5b7f215d61b3a6e0dec65f53482b83c6e85909ec13406d98171c04924cdc9d4e90bd81604051610241919061024c565b60405180910390a150565b600060208083528351808285015260005b818110156102795785810183015185820160400152820161025d565b506000604082860101526040601f19601f8301168501019250505092915050565b634e487b7160e01b600052604160045260246000fd5b6000602082840312156102c257600080fd5b813567ffffffffffffffff808211156102da57600080fd5b818401915084601f8301126102ee57600080fd5b8135818111156103005761030061029a565b604051601f8201601f19908116603f011681019083821181831017156103285761032861029a565b8160405282815287602084870101111561034157600080fd5b826020860160208301376000928101602001929092525095945050505050565b600181811c9082168061037557607f821691505b60208210810361039557634e487b7160e01b600052602260045260246000fd5b5091905056fea2646970667358221220815e07e02a690eaed2b11032a43402412f85b84b8112ebd24c1ffbd8599b75a764736f6c63430008110033a2646970667358221220c8825b953b60a6367695bb7d5b4f66628cbdfc17e83ddfadb6f64ec07e9762ff64736f6c63430008110033","linkReferences":{}},"methodIdentifiers":{"agents(uint256)":"513856c8","createAgent(string,string)":"3a97e40f","getAgents()":"eac3fda4"},"id":21}